{
  "contractName": "AcademicRecordSystem",
  "abi": [
    {
      "inputs": [],
      "stateMutability": "nonpayable",
      "type": "constructor"
    },
    {
      "anonymous": false,
      "inputs": [
        {
          "indexed": true,
          "internalType": "address",
          "name": "educator",
          "type": "address"
        }
      ],
      "name": "EducatorAuthorized",
      "type": "event"
    },
    {
      "anonymous": false,
      "inputs": [
        {
          "indexed": true,
          "internalType": "address",
          "name": "educator",
          "type": "address"
        }
      ],
      "name": "EducatorRevoked",
      "type": "event"
    },
    {
      "anonymous": false,
      "inputs": [
        {
          "indexed": true,
          "internalType": "address",
          "name": "student",
          "type": "address"
        },
        {
          "indexed": false,
          "internalType": "string",
          "name": "courseID",
          "type": "string"
        },
        {
          "indexed": false,
          "internalType": "string",
          "name": "recordType",
          "type": "string"
        },
        {
          "indexed": false,
          "internalType": "uint8",
          "name": "score",
          "type": "uint8"
        }
      ],
      "name": "RecordAdded",
      "type": "event"
    },
    {
      "anonymous": false,
      "inputs": [
        {
          "indexed": true,
          "internalType": "address",
          "name": "student",
          "type": "address"
        },
        {
          "indexed": false,
          "internalType": "uint256",
          "name": "recordIndex",
          "type": "uint256"
        }
      ],
      "name": "RecordVerified",
      "type": "event"
    },
    {
      "inputs": [],
      "name": "admin",
      "outputs": [
        {
          "internalType": "address",
          "name": "",
          "type": "address"
        }
      ],
      "stateMutability": "view",
      "type": "function",
      "constant": true
    },
    {
      "inputs": [
        {
          "internalType": "address",
          "name": "",
          "type": "address"
        }
      ],
      "name": "authorizedEducators",
      "outputs": [
        {
          "internalType": "bool",
          "name": "",
          "type": "bool"
        }
      ],
      "stateMutability": "view",
      "type": "function",
      "constant": true
    },
    {
      "inputs": [
        {
          "internalType": "address",
          "name": "",
          "type": "address"
        },
        {
          "internalType": "uint256",
          "name": "",
          "type": "uint256"
        }
      ],
      "name": "studentRecords",
      "outputs": [
        {
          "internalType": "string",
          "name": "courseID",
          "type": "string"
        },
        {
          "internalType": "uint256",
          "name": "timestamp",
          "type": "uint256"
        },
        {
          "internalType": "uint8",
          "name": "score",
          "type": "uint8"
        },
        {
          "internalType": "string",
          "name": "recordType",
          "type": "string"
        },
        {
          "internalType": "string",
          "name": "description",
          "type": "string"
        },
        {
          "internalType": "bool",
          "name": "verified",
          "type": "bool"
        }
      ],
      "stateMutability": "view",
      "type": "function",
      "constant": true
    },
    {
      "inputs": [
        {
          "internalType": "address",
          "name": "_educator",
          "type": "address"
        }
      ],
      "name": "authorizeEducator",
      "outputs": [],
      "stateMutability": "nonpayable",
      "type": "function"
    },
    {
      "inputs": [
        {
          "internalType": "address",
          "name": "_educator",
          "type": "address"
        }
      ],
      "name": "revokeEducator",
      "outputs": [],
      "stateMutability": "nonpayable",
      "type": "function"
    },
    {
      "inputs": [
        {
          "internalType": "address",
          "name": "_student",
          "type": "address"
        },
        {
          "internalType": "string",
          "name": "_courseID",
          "type": "string"
        },
        {
          "internalType": "uint8",
          "name": "_score",
          "type": "uint8"
        },
        {
          "internalType": "string",
          "name": "_recordType",
          "type": "string"
        },
        {
          "internalType": "string",
          "name": "_description",
          "type": "string"
        }
      ],
      "name": "addRecord",
      "outputs": [],
      "stateMutability": "nonpayable",
      "type": "function"
    },
    {
      "inputs": [
        {
          "internalType": "string",
          "name": "_courseID",
          "type": "string"
        },
        {
          "internalType": "uint8",
          "name": "_score",
          "type": "uint8"
        },
        {
          "internalType": "string",
          "name": "_recordType",
          "type": "string"
        },
        {
          "internalType": "string",
          "name": "_description",
          "type": "string"
        }
      ],
      "name": "submitRecord",
      "outputs": [],
      "stateMutability": "nonpayable",
      "type": "function"
    },
    {
      "inputs": [
        {
          "internalType": "address",
          "name": "_student",
          "type": "address"
        },
        {
          "internalType": "uint256",
          "name": "_recordIndex",
          "type": "uint256"
        }
      ],
      "name": "verifyRecord",
      "outputs": [],
      "stateMutability": "nonpayable",
      "type": "function"
    },
    {
      "inputs": [
        {
          "internalType": "address",
          "name": "_student",
          "type": "address"
        }
      ],
      "name": "getStudentRecords",
      "outputs": [
        {
          "components": [
            {
              "internalType": "string",
              "name": "courseID",
              "type": "string"
            },
            {
              "internalType": "uint256",
              "name": "timestamp",
              "type": "uint256"
            },
            {
              "internalType": "uint8",
              "name": "score",
              "type": "uint8"
            },
            {
              "internalType": "string",
              "name": "recordType",
              "type": "string"
            },
            {
              "internalType": "string",
              "name": "description",
              "type": "string"
            },
            {
              "internalType": "bool",
              "name": "verified",
              "type": "bool"
            }
          ],
          "internalType": "struct AcademicRecordSystem.MilestoneRecord[]",
          "name": "",
          "type": "tuple[]"
        }
      ],
      "stateMutability": "view",
      "type": "function",
      "constant": true
    },
    {
      "inputs": [
        {
          "internalType": "address",
          "name": "_student",
          "type": "address"
        }
      ],
      "name": "getRecordCount",
      "outputs": [
        {
          "internalType": "uint256",
          "name": "",
          "type": "uint256"
        }
      ],
      "stateMutability": "view",
      "type": "function",
      "constant": true
    },
    {
      "inputs": [
        {
          "internalType": "address",
          "name": "_student",
          "type": "address"
        },
        {
          "internalType": "uint256",
          "name": "_index",
          "type": "uint256"
        }
      ],
      "name": "getRecord",
      "outputs": [
        {
          "internalType": "string",
          "name": "courseID",
          "type": "string"
        },
        {
          "internalType": "uint256",
          "name": "timestamp",
          "type": "uint256"
        },
        {
          "internalType": "uint8",
          "name": "score",
          "type": "uint8"
        },
        {
          "internalType": "string",
          "name": "recordType",
          "type": "string"
        },
        {
          "internalType": "string",
          "name": "description",
          "type": "string"
        },
        {
          "internalType": "bool",
          "name": "verified",
          "type": "bool"
        }
      ],
      "stateMutability": "view",
      "type": "function",
      "constant": true
    }
  ],
  "bytecode": "0x608060405234801561001057600080fd5b50600080546001600160a01b0319163390811782558152600260205260409020805460ff1916600117905561140d8061004a6000396000f3fe608060405234801561001057600080fd5b50600436106100a95760003560e01c8063b573581a11610071578063b573581a14610144578063bbb7373914610164578063bbea05af14610177578063cdb8acf01461018a578063d0a9497b1461019d578063f851a440146101b0576100a9565b80632a80c96e146100ae57806350841ab7146100c357806358214308146100ec5780637b656ada1461010c57806386fcede114610131575b600080fd5b6100c16100bc366004610f3a565b6101c5565b005b6100d66100d1366004610f3a565b610244565b6040516100e3919061111e565b60405180910390f35b6100ff6100fa366004610f3a565b61049d565b6040516100e3919061137d565b61011f61011a366004611001565b6104b8565b6040516100e396959493929190611226565b6100c161013f36600461102a565b6106b4565b610157610152366004610f3a565b6107fa565b6040516100e391906111e2565b6100c1610172366004611001565b61080f565b6100c1610185366004610f3a565b610932565b61011f610198366004611001565b6109a5565b6100c16101ab366004610f5b565b610c4c565b6101b8610de9565b6040516100e3919061110a565b6000546001600160a01b031633146101f85760405162461bcd60e51b81526004016101ef9061133b565b60405180910390fd5b6001600160a01b038116600081815260026020526040808220805460ff19166001179055517f261f8188875b267577c74f35f4c92d6cb13a3132867500cc05019de37b6dddc69190a250565b6001600160a01b0381166000908152600160209081526040808320805482518185028101850190935280835260609492939192909184015b8282101561049157838290600052602060002090600602016040518060c00160405290816000820180546102af90611386565b80601f01602080910402602001604051908101604052809291908181526020018280546102db90611386565b80156103285780601f106102fd57610100808354040283529160200191610328565b820191906000526020600020905b81548152906001019060200180831161030b57829003601f168201915b505050918352505060018201546020820152600282015460ff16604082015260038201805460609092019161035c90611386565b80601f016020809104026020016040519081016040528092919081815260200182805461038890611386565b80156103d55780601f106103aa576101008083540402835291602001916103d5565b820191906000526020600020905b8154815290600101906020018083116103b857829003601f168201915b505050505081526020016004820180546103ee90611386565b80601f016020809104026020016040519081016040528092919081815260200182805461041a90611386565b80156104675780601f1061043c57610100808354040283529160200191610467565b820191906000526020600020905b81548152906001019060200180831161044a57829003601f168201915b50505091835250506005919091015460ff161515602091820152908252600192909201910161027c565b5050505090505b919050565b6001600160a01b031660009081526001602052604090205490565b600160205281600052604060002081815481106104d457600080fd5b9060005260206000209060060201600091509150508060000180546104f890611386565b80601f016020809104026020016040519081016040528092919081815260200182805461052490611386565b80156105715780601f1061054657610100808354040283529160200191610571565b820191906000526020600020905b81548152906001019060200180831161055457829003601f168201915b50505050600183015460028401546003850180549495929460ff90921693509061059a90611386565b80601f01602080910402602001604051908101604052809291908181526020018280546105c690611386565b80156106135780601f106105e857610100808354040283529160200191610613565b820191906000526020600020905b8154815290600101906020018083116105f657829003601f168201915b50505050509080600401805461062890611386565b80601f016020809104026020016040519081016040528092919081815260200182805461065490611386565b80156106a15780601f10610676576101008083540402835291602001916106a1565b820191906000526020600020905b81548152906001019060200180831161068457829003601f168201915b5050506005909301549192505060ff1686565b60648360ff1611156106d85760405162461bcd60e51b81526004016101ef906112d5565b336000908152600160208181526040808420815160c081018352898152428185015260ff891692810192909252606082018790526080820186905260a0820185905280549384018155845292819020835180516006909402909101926107419284920190610df8565b506020828101516001830155604083015160028301805460ff191660ff9092169190911790556060830151805161077e9260038501920190610df8565b506080820151805161079a916004840191602090910190610df8565b5060a091909101516005909101805460ff191691151591909117905560405133907f9f8a684b05d888acd292ee5626eb87e27bc8c7fb2792462fd8143b5a0354ed1b906107ec908790869088906111ed565b60405180910390a250505050565b60026020526000908152604090205460ff1681565b3360009081526002602052604090205460ff168061083757506000546001600160a01b031633145b6108535760405162461bcd60e51b81526004016101ef90611284565b6001600160a01b038216600090815260016020526040902054811061088a5760405162461bcd60e51b81526004016101ef9061130c565b6001600160a01b03821660009081526001602081905260409091208054839081106108c557634e487b7160e01b600052603260045260246000fd5b906000526020600020906006020160050160006101000a81548160ff021916908315150217905550816001600160a01b03167fc07ea9174f588d2863ce9946e1817b8cf475a1dc32de846fb4e0e88411d7a9f082604051610926919061137d565b60405180910390a25050565b6000546001600160a01b0316331461095c5760405162461bcd60e51b81526004016101ef9061133b565b6001600160a01b038116600081815260026020526040808220805460ff19169055517ffd752bd8ce5be6167b46e26a58b25bef4fcee2ebb5617c7e6b358986f76f63fd9190a250565b6001600160a01b03821660009081526001602052604081205460609190819083908190839087106109e85760405162461bcd60e51b81526004016101ef9061130c565b6001600160a01b0388166000908152600160205260408120805489908110610a2057634e487b7160e01b600052603260045260246000fd5b90600052602060002090600602016040518060c0016040529081600082018054610a4990611386565b80601f0160208091040260200160405190810160405280929190818152602001828054610a7590611386565b8015610ac25780601f10610a9757610100808354040283529160200191610ac2565b820191906000526020600020905b815481529060010190602001808311610aa557829003601f168201915b505050918352505060018201546020820152600282015460ff166040820152600382018054606090920191610af690611386565b80601f0160208091040260200160405190810160405280929190818152602001828054610b2290611386565b8015610b6f5780601f10610b4457610100808354040283529160200191610b6f565b820191906000526020600020905b815481529060010190602001808311610b5257829003601f168201915b50505050508152602001600482018054610b8890611386565b80601f0160208091040260200160405190810160405280929190818152602001828054610bb490611386565b8015610c015780601f10610bd657610100808354040283529160200191610c01565b820191906000526020600020905b815481529060010190602001808311610be457829003601f168201915b50505091835250506005919091015460ff16151560209182015281519082015160408301516060840151608085015160a090950151939e929d50909b50995091975095509350505050565b3360009081526002602052604090205460ff1680610c7457506000546001600160a01b031633145b610c905760405162461bcd60e51b81526004016101ef90611284565b60648360ff161115610cb45760405162461bcd60e51b81526004016101ef906112d5565b6001600160a01b0385166000908152600160208181526040808420815160c081018352898152428185015260ff891692810192909252606082018790526080820186905260a082018490528054938401815584529281902083518051600690940290910192610d269284920190610df8565b506020828101516001830155604083015160028301805460ff191660ff90921691909117905560608301518051610d639260038501920190610df8565b5060808201518051610d7f916004840191602090910190610df8565b5060a091909101516005909101805460ff19169115159190911790556040516001600160a01b038616907f9f8a684b05d888acd292ee5626eb87e27bc8c7fb2792462fd8143b5a0354ed1b90610dda908790869088906111ed565b60405180910390a25050505050565b6000546001600160a01b031681565b828054610e0490611386565b90600052602060002090601f016020900481019282610e265760008555610e6c565b82601f10610e3f57805160ff1916838001178555610e6c565b82800160010185558215610e6c579182015b82811115610e6c578251825591602001919060010190610e51565b50610e78929150610e7c565b5090565b5b80821115610e785760008155600101610e7d565b80356001600160a01b038116811461049857600080fd5b600082601f830112610eb8578081fd5b813567ffffffffffffffff80821115610ed357610ed36113c1565b604051601f8301601f191681016020018281118282101715610ef757610ef76113c1565b604052828152848301602001861015610f0e578384fd5b82602086016020830137918201602001929092529392505050565b803560ff8116811461049857600080fd5b600060208284031215610f4b578081fd5b610f5482610e91565b9392505050565b600080600080600060a08688031215610f72578081fd5b610f7b86610e91565b9450602086013567ffffffffffffffff80821115610f97578283fd5b610fa389838a01610ea8565b9550610fb160408901610f29565b94506060880135915080821115610fc6578283fd5b610fd289838a01610ea8565b93506080880135915080821115610fe7578283fd5b50610ff488828901610ea8565b9150509295509295909350565b60008060408385031215611013578182fd5b61101c83610e91565b946020939093013593505050565b6000806000806080858703121561103f578384fd5b843567ffffffffffffffff80821115611056578586fd5b61106288838901610ea8565b955061107060208801610f29565b94506040870135915080821115611085578384fd5b61109188838901610ea8565b935060608701359150808211156110a6578283fd5b506110b387828801610ea8565b91505092959194509250565b60008151808452815b818110156110e4576020818501810151868301820152016110c8565b818111156110f55782602083870101525b50601f01601f19169290920160200192915050565b6001600160a01b0391909116815260200190565b60208082528251828201819052600091906040908185019080840286018301878501865b838110156111d457603f19898403018552815160c08151818652611168828701826110bf565b915050888201518986015260ff8883015116888601526060808301518683038288015261119583826110bf565b92505050608080830151868303828801526111b083826110bf565b60a09485015115159790940196909652505094870194925090860190600101611142565b509098975050505050505050565b901515815260200190565b60006060825261120060608301866110bf565b828103602084015261121281866110bf565b91505060ff83166040830152949350505050565b600060c0825261123960c08301896110bf565b87602084015260ff87166040840152828103606084015261125a81876110bf565b9050828103608084015261126e81866110bf565b91505082151560a0830152979650505050505050565b60208082526031908201527f4f6e6c7920617574686f72697a6564206564756361746f72732063616e207065604082015270393337b936903a3434b99030b1ba34b7b760791b606082015260800190565b6020808252601f908201527f53636f7265206d757374206265206265747765656e203020616e642031303000604082015260600190565b602080825260159082015274149958dbdc9908191bd95cc81b9bdd08195e1a5cdd605a1b604082015260600190565b60208082526022908201527f4f6e6c792061646d696e2063616e20706572666f726d2074686973206163746960408201526137b760f11b606082015260800190565b90815260200190565b60028104600182168061139a57607f821691505b602082108114156113bb57634e487b7160e01b600052602260045260246000fd5b50919050565b634e487b7160e01b600052604160045260246000fdfea2646970667358221220e9ae6561a5660e72339fbe0275af67c1a1af16d7ee4cdde550cd743937884d4b64736f6c63430008000033",
  "immutableReferences": {},
  "source": "// SPDX-License-Identifier: MIT\r\npragma solidity ^0.8.0;\r\n\r\ncontract AcademicRecordSystem {\r\n    address public admin;\r\n    \r\n    struct MilestoneRecord {\r\n        string courseID;\r\n        uint256 timestamp;\r\n        uint8 score;        // Score out of 100\r\n        string recordType;  // \"Quiz\", \"Assignment\", \"Exam\", etc.\r\n        string description; // Brief description of the milestone\r\n        bool verified;      // Whether this record has been verified by an educator\r\n    }\r\n    \r\n    // Mapping from student address to their records\r\n    mapping(address => MilestoneRecord[]) public studentRecords;\r\n    \r\n    // Mapping of authorized educators\r\n    mapping(address => bool) public authorizedEducators;\r\n    \r\n    // Events\r\n    event RecordAdded(address indexed student, string courseID, string recordType, uint8 score);\r\n    event RecordVerified(address indexed student, uint256 recordIndex);\r\n    event EducatorAuthorized(address indexed educator);\r\n    event EducatorRevoked(address indexed educator);\r\n    \r\n    modifier onlyAdmin() {\r\n        require(msg.sender == admin, \"Only admin can perform this action\");\r\n        _;\r\n    }\r\n    \r\n    modifier onlyEducator() {\r\n        require(authorizedEducators[msg.sender] || msg.sender == admin, \"Only authorized educators can perform this action\");\r\n        _;\r\n    }\r\n    \r\n    constructor() {\r\n        admin = msg.sender;\r\n        authorizedEducators[msg.sender] = true;\r\n    }\r\n    \r\n    // Add a new educator\r\n    function authorizeEducator(address _educator) public onlyAdmin {\r\n        authorizedEducators[_educator] = true;\r\n        emit EducatorAuthorized(_educator);\r\n    }\r\n    \r\n    // Revoke educator access\r\n    function revokeEducator(address _educator) public onlyAdmin {\r\n        authorizedEducators[_educator] = false;\r\n        emit EducatorRevoked(_educator);\r\n    }\r\n    \r\n    // Add a new academic record\r\n    function addRecord(\r\n        address _student,\r\n        string memory _courseID,\r\n        uint8 _score,\r\n        string memory _recordType,\r\n        string memory _description\r\n    ) public onlyEducator {\r\n        require(_score <= 100, \"Score must be between 0 and 100\");\r\n        \r\n        studentRecords[_student].push(MilestoneRecord({\r\n            courseID: _courseID,\r\n            timestamp: block.timestamp,\r\n            score: _score,\r\n            recordType: _recordType,\r\n            description: _description,\r\n            verified: true  // Auto-verified if added by an educator\r\n        }));\r\n        \r\n        emit RecordAdded(_student, _courseID, _recordType, _score);\r\n    }\r\n    \r\n    // Student can submit their own record (needs verification)\r\n    function submitRecord(\r\n        string memory _courseID,\r\n        uint8 _score,\r\n        string memory _recordType,\r\n        string memory _description\r\n    ) public {\r\n        require(_score <= 100, \"Score must be between 0 and 100\");\r\n        \r\n        studentRecords[msg.sender].push(MilestoneRecord({\r\n            courseID: _courseID,\r\n            timestamp: block.timestamp,\r\n            score: _score,\r\n            recordType: _recordType,\r\n            description: _description,\r\n            verified: false  // Needs verification\r\n        }));\r\n        \r\n        emit RecordAdded(msg.sender, _courseID, _recordType, _score);\r\n    }\r\n    \r\n    // Educator verifies a student-submitted record\r\n    function verifyRecord(address _student, uint256 _recordIndex) public onlyEducator {\r\n        require(_recordIndex < studentRecords[_student].length, \"Record does not exist\");\r\n        studentRecords[_student][_recordIndex].verified = true;\r\n        emit RecordVerified(_student, _recordIndex);\r\n    }\r\n    \r\n    // Get all records for a student\r\n    function getStudentRecords(address _student) public view returns (MilestoneRecord[] memory) {\r\n        return studentRecords[_student];\r\n    }\r\n    \r\n    // Get record count for a student\r\n    function getRecordCount(address _student) public view returns (uint256) {\r\n        return studentRecords[_student].length;\r\n    }\r\n    \r\n    // Get a specific record\r\n    function getRecord(address _student, uint256 _index) public view returns (\r\n        string memory courseID,\r\n        uint256 timestamp,\r\n        uint8 score,\r\n        string memory recordType,\r\n        string memory description,\r\n        bool verified\r\n    ) {\r\n        require(_index < studentRecords[_student].length, \"Record does not exist\");\r\n        MilestoneRecord memory record = studentRecords[_student][_index];\r\n        \r\n        return (\r\n            record.courseID,\r\n            record.timestamp,\r\n            record.score,\r\n            record.recordType,\r\n            record.description,\r\n            record.verified\r\n        );\r\n    }\r\n}",
  "sourcePath": "C:\\Users\\MSI WINDOWS 111\\Desktop\\Project\\academic-blockchain\\contracts\\AcademicRecordSystem.sol",
  "compiler": {
    "name": "solc",
    "version": "0.8.0+commit.c7dfd78e.Emscripten.clang"
  },
  "schemaVersion": "3.4.16",
  "updatedAt": "2025-04-06T03:17:02.667Z",
  "networkType": "ethereum",
  "devdoc": {
    "kind": "dev",
    "methods": {},
    "version": 1
  },
  "userdoc": {
    "kind": "user",
    "methods": {},
    "version": 1
  }
}