{
  "contractName": "AcademicMilestones",
  "abi": [
    {
      "inputs": [],
      "stateMutability": "nonpayable",
      "type": "constructor"
    },
    {
      "inputs": [],
      "name": "owner",
      "outputs": [
        {
          "internalType": "address",
          "name": "",
          "type": "address"
        }
      ],
      "stateMutability": "view",
      "type": "function"
    },
    {
      "inputs": [
        {
          "internalType": "address",
          "name": "_student",
          "type": "address"
        },
        {
          "internalType": "string",
          "name": "_courseID",
          "type": "string"
        },
        {
          "internalType": "uint8",
          "name": "_grade",
          "type": "uint8"
        },
        {
          "internalType": "string",
          "name": "_activityType",
          "type": "string"
        }
      ],
      "name": "addRecord",
      "outputs": [],
      "stateMutability": "nonpayable",
      "type": "function"
    },
    {
      "inputs": [
        {
          "internalType": "address",
          "name": "_student",
          "type": "address"
        }
      ],
      "name": "getStudentRecords",
      "outputs": [
        {
          "components": [
            {
              "internalType": "string",
              "name": "courseID",
              "type": "string"
            },
            {
              "internalType": "uint256",
              "name": "timestamp",
              "type": "uint256"
            },
            {
              "internalType": "uint8",
              "name": "grade",
              "type": "uint8"
            },
            {
              "internalType": "string",
              "name": "activityType",
              "type": "string"
            }
          ],
          "internalType": "struct AcademicMilestones.Record[]",
          "name": "",
          "type": "tuple[]"
        }
      ],
      "stateMutability": "view",
      "type": "function"
    },
    {
      "inputs": [
        {
          "internalType": "address",
          "name": "_newOwner",
          "type": "address"
        }
      ],
      "name": "transferOwnership",
      "outputs": [],
      "stateMutability": "nonpayable",
      "type": "function"
    }
  ],
  "bytecode": "0x608060405234801561000f575f80fd5b503360015f6101000a81548173ffffffffffffffffffffffffffffffffffffffff021916908373ffffffffffffffffffffffffffffffffffffffff160217905550610dee8061005d5f395ff3fe608060405234801561000f575f80fd5b506004361061004a575f3560e01c806350841ab71461004e5780637f81622a1461007e5780638da5cb5b1461009a578063f2fde38b146100b8575b5f80fd5b610068600480360381019061006391906105cb565b6100d4565b60405161007591906107d5565b60405180910390f35b6100986004803603810190610093919061094b565b6102b1565b005b6100a2610469565b6040516100af91906109f6565b60405180910390f35b6100d260048036038101906100cd91906105cb565b61048e565b005b60605f808373ffffffffffffffffffffffffffffffffffffffff1673ffffffffffffffffffffffffffffffffffffffff1681526020019081526020015f20805480602002602001604051908101604052809291908181526020015f905b828210156102a6578382905f5260205f2090600402016040518060800160405290815f8201805461016190610a3c565b80601f016020809104026020016040519081016040528092919081815260200182805461018d90610a3c565b80156101d85780601f106101af576101008083540402835291602001916101d8565b820191905f5260205f20905b8154815290600101906020018083116101bb57829003601f168201915b5050505050815260200160018201548152602001600282015f9054906101000a900460ff1660ff1660ff16815260200160038201805461021790610a3c565b80601f016020809104026020016040519081016040528092919081815260200182805461024390610a3c565b801561028e5780601f106102655761010080835404028352916020019161028e565b820191905f5260205f20905b81548152906001019060200180831161027157829003601f168201915b50505050508152505081526020019060010190610131565b505050509050919050565b60015f9054906101000a900473ffffffffffffffffffffffffffffffffffffffff1673ffffffffffffffffffffffffffffffffffffffff163373ffffffffffffffffffffffffffffffffffffffff1614610340576040517f08c379a000000000000000000000000000000000000000000000000000000000815260040161033790610ac6565b60405180910390fd5b60648260ff161115610387576040517f08c379a000000000000000000000000000000000000000000000000000000000815260040161037e90610b2e565b60405180910390fd5b5f808573ffffffffffffffffffffffffffffffffffffffff1673ffffffffffffffffffffffffffffffffffffffff1681526020019081526020015f2060405180608001604052808581526020014281526020018460ff16815260200183815250908060018154018082558091505060019003905f5260205f2090600402015f909190919091505f820151815f0190816104209190610ce9565b50602082015181600101556040820151816002015f6101000a81548160ff021916908360ff16021790555060608201518160030190816104609190610ce9565b50505050505050565b60015f9054906101000a900473ffffffffffffffffffffffffffffffffffffffff1681565b60015f9054906101000a900473ffffffffffffffffffffffffffffffffffffffff1673ffffffffffffffffffffffffffffffffffffffff163373ffffffffffffffffffffffffffffffffffffffff161461051d576040517f08c379a000000000000000000000000000000000000000000000000000000000815260040161051490610ac6565b60405180910390fd5b8060015f6101000a81548173ffffffffffffffffffffffffffffffffffffffff021916908373ffffffffffffffffffffffffffffffffffffffff16021790555050565b5f604051905090565b5f80fd5b5f80fd5b5f73ffffffffffffffffffffffffffffffffffffffff82169050919050565b5f61059a82610571565b9050919050565b6105aa81610590565b81146105b4575f80fd5b50565b5f813590506105c5816105a1565b92915050565b5f602082840312156105e0576105df610569565b5b5f6105ed848285016105b7565b91505092915050565b5f81519050919050565b5f82825260208201905092915050565b5f819050602082019050919050565b5f81519050919050565b5f82825260208201905092915050565b5f5b8381101561065657808201518184015260208101905061063b565b5f8484015250505050565b5f601f19601f8301169050919050565b5f61067b8261061f565b6106858185610629565b9350610695818560208601610639565b61069e81610661565b840191505092915050565b5f819050919050565b6106bb816106a9565b82525050565b5f60ff82169050919050565b6106d6816106c1565b82525050565b5f608083015f8301518482035f8601526106f68282610671565b915050602083015161070b60208601826106b2565b50604083015161071e60408601826106cd565b50606083015184820360608601526107368282610671565b9150508091505092915050565b5f61074e83836106dc565b905092915050565b5f602082019050919050565b5f61076c826105f6565b6107768185610600565b93508360208202850161078885610610565b805f5b858110156107c357848403895281516107a48582610743565b94506107af83610756565b925060208a0199505060018101905061078b565b50829750879550505050505092915050565b5f6020820190508181035f8301526107ed8184610762565b905092915050565b5f80fd5b5f80fd5b7f4e487b71000000000000000000000000000000000000000000000000000000005f52604160045260245ffd5b61083382610661565b810181811067ffffffffffffffff82111715610852576108516107fd565b5b80604052505050565b5f610864610560565b9050610870828261082a565b919050565b5f67ffffffffffffffff82111561088f5761088e6107fd565b5b61089882610661565b9050602081019050919050565b828183375f83830152505050565b5f6108c56108c084610875565b61085b565b9050828152602081018484840111156108e1576108e06107f9565b5b6108ec8482856108a5565b509392505050565b5f82601f830112610908576109076107f5565b5b81356109188482602086016108b3565b91505092915050565b61092a816106c1565b8114610934575f80fd5b50565b5f8135905061094581610921565b92915050565b5f805f806080858703121561096357610962610569565b5b5f610970878288016105b7565b945050602085013567ffffffffffffffff8111156109915761099061056d565b5b61099d878288016108f4565b93505060406109ae87828801610937565b925050606085013567ffffffffffffffff8111156109cf576109ce61056d565b5b6109db878288016108f4565b91505092959194509250565b6109f081610590565b82525050565b5f602082019050610a095f8301846109e7565b92915050565b7f4e487b71000000000000000000000000000000000000000000000000000000005f52602260045260245ffd5b5f6002820490506001821680610a5357607f821691505b602082108103610a6657610a65610a0f565b5b50919050565b5f82825260208201905092915050565b7f4f6e6c7920746865206f776e65722063616e2063616c6c20746869732e0000005f82015250565b5f610ab0601d83610a6c565b9150610abb82610a7c565b602082019050919050565b5f6020820190508181035f830152610add81610aa4565b9050919050565b7f4772616465206d757374206265206265747765656e203020616e6420313030005f82015250565b5f610b18601f83610a6c565b9150610b2382610ae4565b602082019050919050565b5f6020820190508181035f830152610b4581610b0c565b9050919050565b5f819050815f5260205f209050919050565b5f6020601f8301049050919050565b5f82821b905092915050565b5f60088302610ba87fffffffffffffffffffffffffffffffffffffffffffffffffffffffffffffffff82610b6d565b610bb28683610b6d565b95508019841693508086168417925050509392505050565b5f819050919050565b5f610bed610be8610be3846106a9565b610bca565b6106a9565b9050919050565b5f819050919050565b610c0683610bd3565b610c1a610c1282610bf4565b848454610b79565b825550505050565b5f90565b610c2e610c22565b610c39818484610bfd565b505050565b5b81811015610c5c57610c515f82610c26565b600181019050610c3f565b5050565b601f821115610ca157610c7281610b4c565b610c7b84610b5e565b81016020851015610c8a578190505b610c9e610c9685610b5e565b830182610c3e565b50505b505050565b5f82821c905092915050565b5f610cc15f1984600802610ca6565b1980831691505092915050565b5f610cd98383610cb2565b9150826002028217905092915050565b610cf28261061f565b67ffffffffffffffff811115610d0b57610d0a6107fd565b5b610d158254610a3c565b610d20828285610c60565b5f60209050601f831160018114610d51575f8415610d3f578287015190505b610d498582610cce565b865550610db0565b601f198416610d5f86610b4c565b5f5b82811015610d8657848901518255600182019150602085019450602081019050610d61565b86831015610da35784890151610d9f601f891682610cb2565b8355505b6001600288020188555050505b50505050505056fea2646970667358221220140c65e78e0c8b7de812a142017fd0016969a9479a398cd4b26ff125ac21a6b564736f6c63430008150033",
  "immutableReferences": {},
  "source": "// SPDX-License-Identifier: MIT\r\npragma solidity ^0.8.0;\r\n\r\ncontract AcademicMilestones {\r\n    \r\n    // Structure to store a student's record\r\n    struct Record {\r\n        string courseID;\r\n        uint256 timestamp;\r\n        uint8 grade; // Grade out of 100\r\n        string activityType; // \"Quiz\", \"Assignment\", etc.\r\n    }\r\n\r\n    // Mapping of student address to their records\r\n    mapping(address => Record[]) private studentRecords;\r\n\r\n    // Address of the contract owner (admin/educator)\r\n    address public owner;\r\n\r\n    // Modifier to restrict access\r\n    modifier onlyOwner() {\r\n        require(msg.sender == owner, \"Only the owner can call this.\");\r\n        _;\r\n    }\r\n\r\n    constructor() {\r\n        owner = msg.sender;\r\n    }\r\n\r\n    /// @notice Add a performance record for a student\r\n    /// @param _student Address of the student\r\n    /// @param _courseID ID of the course\r\n    /// @param _grade Grade received (0-100)\r\n    /// @param _activityType Type of activity (e.g., Quiz, Assignment)\r\n    function addRecord(\r\n        address _student,\r\n        string memory _courseID,\r\n        uint8 _grade,\r\n        string memory _activityType\r\n    ) public onlyOwner {\r\n        require(_grade <= 100, \"Grade must be between 0 and 100\");\r\n        studentRecords[_student].push(Record({\r\n            courseID: _courseID,\r\n            timestamp: block.timestamp,\r\n            grade: _grade,\r\n            activityType: _activityType\r\n        }));\r\n    }\r\n\r\n    /// @notice Retrieve all records of a student\r\n    /// @param _student Address of the student\r\n    /// @return Array of Record structs\r\n    function getStudentRecords(address _student) public view returns (Record[] memory) {\r\n        return studentRecords[_student];\r\n    }\r\n\r\n    /// @notice Transfer ownership of the contract\r\n    /// @param _newOwner Address of the new owner\r\n    function transferOwnership(address _newOwner) public onlyOwner {\r\n        owner = _newOwner;\r\n    }\r\n}\r\n",
  "sourcePath": "C:\\Users\\MSI WINDOWS 111\\Documents\\Latest_project\\contracts\\AssignmentSubmission.sol",
  "compiler": {
    "name": "solc",
    "version": "0.8.21+commit.d9974bed.Emscripten.clang"
  },
  "schemaVersion": "3.4.16",
  "updatedAt": "2025-04-05T07:31:58.398Z",
  "devdoc": {
    "kind": "dev",
    "methods": {
      "addRecord(address,string,uint8,string)": {
        "params": {
          "_activityType": "Type of activity (e.g., Quiz, Assignment)",
          "_courseID": "ID of the course",
          "_grade": "Grade received (0-100)",
          "_student": "Address of the student"
        }
      },
      "getStudentRecords(address)": {
        "params": {
          "_student": "Address of the student"
        },
        "returns": {
          "_0": "Array of Record structs"
        }
      },
      "transferOwnership(address)": {
        "params": {
          "_newOwner": "Address of the new owner"
        }
      }
    },
    "version": 1
  },
  "userdoc": {
    "kind": "user",
    "methods": {
      "addRecord(address,string,uint8,string)": {
        "notice": "Add a performance record for a student"
      },
      "getStudentRecords(address)": {
        "notice": "Retrieve all records of a student"
      },
      "transferOwnership(address)": {
        "notice": "Transfer ownership of the contract"
      }
    },
    "version": 1
  }
}